{
  "contractName": "UICBuilding",
  "abi": [
    {
      "constant": true,
      "inputs": [],
      "name": "totalBuildings",
      "outputs": [
        {
          "name": "",
          "type": "uint256"
        }
      ],
      "payable": false,
      "stateMutability": "view",
      "type": "function",
      "signature": "0x3ba5c722"
    },
    {
      "constant": true,
      "inputs": [
        {
          "name": "",
          "type": "uint256"
        }
      ],
      "name": "building",
      "outputs": [
        {
          "name": "buildingIndex",
          "type": "string"
        },
        {
          "name": "buildingId",
          "type": "string"
        },
        {
          "name": "buildingName",
          "type": "string"
        },
        {
          "name": "buildingCode",
          "type": "string"
        },
        {
          "name": "buildingAddress",
          "type": "string"
        },
        {
          "name": "buildingBuiltDate",
          "type": "string"
        },
        {
          "name": "buildingNASF",
          "type": "string"
        },
        {
          "name": "buildingNUSF",
          "type": "string"
        },
        {
          "name": "buldingGSF",
          "type": "string"
        },
        {
          "name": "buildingCategory",
          "type": "string"
        },
        {
          "name": "BuildingRegion",
          "type": "string"
        }
      ],
      "payable": false,
      "stateMutability": "view",
      "type": "function",
      "signature": "0x66ad3ffc"
    },
    {
      "inputs": [],
      "payable": false,
      "stateMutability": "nonpayable",
      "type": "constructor",
      "signature": "constructor"
    },
    {
      "constant": false,
      "inputs": [
        {
          "name": "_buildingIndex",
          "type": "string"
        },
        {
          "name": "_buildingId",
          "type": "string"
        },
        {
          "name": "_buildingName",
          "type": "string"
        },
        {
          "name": "_buildingCode",
          "type": "string"
        },
        {
          "name": "_buildingAddress",
          "type": "string"
        },
        {
          "name": "_buildingBuiltDate",
          "type": "string"
        },
        {
          "name": "_buildingNASF",
          "type": "string"
        },
        {
          "name": "_buildingNUSF",
          "type": "string"
        },
        {
          "name": "_buldingGSF",
          "type": "string"
        },
        {
          "name": "_buildingCategory",
          "type": "string"
        },
        {
          "name": "_BuildingRegion",
          "type": "string"
        }
      ],
      "name": "addBuilding",
      "outputs": [],
      "payable": false,
      "stateMutability": "nonpayable",
      "type": "function",
      "signature": "0x34b18f41"
    },
    {
      "constant": true,
      "inputs": [
        {
          "name": "index",
          "type": "uint256"
        }
      ],
      "name": "getBuilindingAddress",
      "outputs": [
        {
          "components": [
            {
              "name": "buildingIndex",
              "type": "string"
            },
            {
              "name": "buildingId",
              "type": "string"
            },
            {
              "name": "buildingName",
              "type": "string"
            },
            {
              "name": "buildingCode",
              "type": "string"
            },
            {
              "name": "buildingAddress",
              "type": "string"
            },
            {
              "name": "buildingBuiltDate",
              "type": "string"
            },
            {
              "name": "buildingNASF",
              "type": "string"
            },
            {
              "name": "buildingNUSF",
              "type": "string"
            },
            {
              "name": "buldingGSF",
              "type": "string"
            },
            {
              "name": "buildingCategory",
              "type": "string"
            },
            {
              "name": "BuildingRegion",
              "type": "string"
            }
          ],
          "name": "",
          "type": "tuple"
        }
      ],
      "payable": false,
      "stateMutability": "view",
      "type": "function",
      "signature": "0x7b325b9c"
    }
  ],
  "bytecode": "0x608060405234801561001057600080fd5b50336000806101000a81548173ffffffffffffffffffffffffffffffffffffffff021916908373ffffffffffffffffffffffffffffffffffffffff1602179055506118ac806100606000396000f3fe608060405260043610610062576000357c0100000000000000000000000000000000000000000000000000000000900463ffffffff16806334b18f41146100675780633ba5c7221461009057806366ad3ffc146100bb5780637b325b9c14610102575b600080fd5b34801561007357600080fd5b5061008e600480360361008991908101906112d7565b61013f565b005b34801561009c57600080fd5b506100a5610360565b6040516100b2919061178c565b60405180910390f35b3480156100c757600080fd5b506100e260048036036100dd91908101906114cf565b610366565b6040516100f99b9a99989796959493929190611672565b60405180910390f35b34801561010e57600080fd5b50610129600480360361012491908101906114cf565b610a48565b604051610136919061176a565b60405180910390f35b6000809054906101000a900473ffffffffffffffffffffffffffffffffffffffff1673ffffffffffffffffffffffffffffffffffffffff163373ffffffffffffffffffffffffffffffffffffffff1614151561019a57600080fd5b600260008154809291906001019190505550610160604051908101604052808c81526020018b81526020018a815260200189815260200188815260200187815260200186815260200185815260200184815260200183815260200182815250600160006002548152602001908152602001600020600082015181600001908051906020019061022a92919061116d565b50602082015181600101908051906020019061024792919061116d565b50604082015181600201908051906020019061026492919061116d565b50606082015181600301908051906020019061028192919061116d565b50608082015181600401908051906020019061029e92919061116d565b5060a08201518160050190805190602001906102bb92919061116d565b5060c08201518160060190805190602001906102d892919061116d565b5060e08201518160070190805190602001906102f592919061116d565b5061010082015181600801908051906020019061031392919061116d565b5061012082015181600901908051906020019061033192919061116d565b5061014082015181600a01908051906020019061034f92919061116d565b509050505050505050505050505050565b60025481565b6001602052806000526040600020600091509050806000018054600181600116156101000203166002900480601f0160208091040260200160405190810160405280929190818152602001828054600181600116156101000203166002900480156104125780601f106103e757610100808354040283529160200191610412565b820191906000526020600020905b8154815290600101906020018083116103f557829003601f168201915b505050505090806001018054600181600116156101000203166002900480601f0160208091040260200160405190810160405280929190818152602001828054600181600116156101000203166002900480156104b05780601f10610485576101008083540402835291602001916104b0565b820191906000526020600020905b81548152906001019060200180831161049357829003601f168201915b505050505090806002018054600181600116156101000203166002900480601f01602080910402602001604051908101604052809291908181526020018280546001816001161561010002031660029004801561054e5780601f106105235761010080835404028352916020019161054e565b820191906000526020600020905b81548152906001019060200180831161053157829003601f168201915b505050505090806003018054600181600116156101000203166002900480601f0160208091040260200160405190810160405280929190818152602001828054600181600116156101000203166002900480156105ec5780601f106105c1576101008083540402835291602001916105ec565b820191906000526020600020905b8154815290600101906020018083116105cf57829003601f168201915b505050505090806004018054600181600116156101000203166002900480601f01602080910402602001604051908101604052809291908181526020018280546001816001161561010002031660029004801561068a5780601f1061065f5761010080835404028352916020019161068a565b820191906000526020600020905b81548152906001019060200180831161066d57829003601f168201915b505050505090806005018054600181600116156101000203166002900480601f0160208091040260200160405190810160405280929190818152602001828054600181600116156101000203166002900480156107285780601f106106fd57610100808354040283529160200191610728565b820191906000526020600020905b81548152906001019060200180831161070b57829003601f168201915b505050505090806006018054600181600116156101000203166002900480601f0160208091040260200160405190810160405280929190818152602001828054600181600116156101000203166002900480156107c65780601f1061079b576101008083540402835291602001916107c6565b820191906000526020600020905b8154815290600101906020018083116107a957829003601f168201915b505050505090806007018054600181600116156101000203166002900480601f0160208091040260200160405190810160405280929190818152602001828054600181600116156101000203166002900480156108645780601f1061083957610100808354040283529160200191610864565b820191906000526020600020905b81548152906001019060200180831161084757829003601f168201915b505050505090806008018054600181600116156101000203166002900480601f0160208091040260200160405190810160405280929190818152602001828054600181600116156101000203166002900480156109025780601f106108d757610100808354040283529160200191610902565b820191906000526020600020905b8154815290600101906020018083116108e557829003601f168201915b505050505090806009018054600181600116156101000203166002900480601f0160208091040260200160405190810160405280929190818152602001828054600181600116156101000203166002900480156109a05780601f10610975576101008083540402835291602001916109a0565b820191906000526020600020905b81548152906001019060200180831161098357829003601f168201915b50505050509080600a018054600181600116156101000203166002900480601f016020809104026020016040519081016040528092919081815260200182805460018160011615610100020316600290048015610a3e5780601f10610a1357610100808354040283529160200191610a3e565b820191906000526020600020905b815481529060010190602001808311610a2157829003601f168201915b505050505090508b565b610a506111ed565b600160008381526020019081526020016000206101606040519081016040529081600082018054600181600116156101000203166002900480601f016020809104026020016040519081016040528092919081815260200182805460018160011615610100020316600290048015610b095780601f10610ade57610100808354040283529160200191610b09565b820191906000526020600020905b815481529060010190602001808311610aec57829003601f168201915b50505050508152602001600182018054600181600116156101000203166002900480601f016020809104026020016040519081016040528092919081815260200182805460018160011615610100020316600290048015610bab5780601f10610b8057610100808354040283529160200191610bab565b820191906000526020600020905b815481529060010190602001808311610b8e57829003601f168201915b50505050508152602001600282018054600181600116156101000203166002900480601f016020809104026020016040519081016040528092919081815260200182805460018160011615610100020316600290048015610c4d5780601f10610c2257610100808354040283529160200191610c4d565b820191906000526020600020905b815481529060010190602001808311610c3057829003601f168201915b50505050508152602001600382018054600181600116156101000203166002900480601f016020809104026020016040519081016040528092919081815260200182805460018160011615610100020316600290048015610cef5780601f10610cc457610100808354040283529160200191610cef565b820191906000526020600020905b815481529060010190602001808311610cd257829003601f168201915b50505050508152602001600482018054600181600116156101000203166002900480601f016020809104026020016040519081016040528092919081815260200182805460018160011615610100020316600290048015610d915780601f10610d6657610100808354040283529160200191610d91565b820191906000526020600020905b815481529060010190602001808311610d7457829003601f168201915b50505050508152602001600582018054600181600116156101000203166002900480601f016020809104026020016040519081016040528092919081815260200182805460018160011615610100020316600290048015610e335780601f10610e0857610100808354040283529160200191610e33565b820191906000526020600020905b815481529060010190602001808311610e1657829003601f168201915b50505050508152602001600682018054600181600116156101000203166002900480601f016020809104026020016040519081016040528092919081815260200182805460018160011615610100020316600290048015610ed55780601f10610eaa57610100808354040283529160200191610ed5565b820191906000526020600020905b815481529060010190602001808311610eb857829003601f168201915b50505050508152602001600782018054600181600116156101000203166002900480601f016020809104026020016040519081016040528092919081815260200182805460018160011615610100020316600290048015610f775780601f10610f4c57610100808354040283529160200191610f77565b820191906000526020600020905b815481529060010190602001808311610f5a57829003601f168201915b50505050508152602001600882018054600181600116156101000203166002900480601f0160208091040260200160405190810160405280929190818152602001828054600181600116156101000203166002900480156110195780601f10610fee57610100808354040283529160200191611019565b820191906000526020600020905b815481529060010190602001808311610ffc57829003601f168201915b50505050508152602001600982018054600181600116156101000203166002900480601f0160208091040260200160405190810160405280929190818152602001828054600181600116156101000203166002900480156110bb5780601f10611090576101008083540402835291602001916110bb565b820191906000526020600020905b81548152906001019060200180831161109e57829003601f168201915b50505050508152602001600a82018054600181600116156101000203166002900480601f01602080910402602001604051908101604052809291908181526020018280546001816001161561010002031660029004801561115d5780601f106111325761010080835404028352916020019161115d565b820191906000526020600020905b81548152906001019060200180831161114057829003601f168201915b5050505050815250509050919050565b828054600181600116156101000203166002900490600052602060002090601f016020900481019282601f106111ae57805160ff19168380011785556111dc565b828001600101855582156111dc579182015b828111156111db5782518255916020019190600101906111c0565b5b5090506111e99190611248565b5090565b6101606040519081016040528060608152602001606081526020016060815260200160608152602001606081526020016060815260200160608152602001606081526020016060815260200160608152602001606081525090565b61126a91905b8082111561126657600081600090555060010161124e565b5090565b90565b600082601f830112151561128057600080fd5b813561129361128e826117d4565b6117a7565b915080825260208301602083018583830111156112af57600080fd5b6112ba83828461181f565b50505092915050565b60006112cf8235611815565b905092915050565b60008060008060008060008060008060006101608c8e0312156112f957600080fd5b60008c013567ffffffffffffffff81111561131357600080fd5b61131f8e828f0161126d565b9b505060208c013567ffffffffffffffff81111561133c57600080fd5b6113488e828f0161126d565b9a505060408c013567ffffffffffffffff81111561136557600080fd5b6113718e828f0161126d565b99505060608c013567ffffffffffffffff81111561138e57600080fd5b61139a8e828f0161126d565b98505060808c013567ffffffffffffffff8111156113b757600080fd5b6113c38e828f0161126d565b97505060a08c013567ffffffffffffffff8111156113e057600080fd5b6113ec8e828f0161126d565b96505060c08c013567ffffffffffffffff81111561140957600080fd5b6114158e828f0161126d565b95505060e08c013567ffffffffffffffff81111561143257600080fd5b61143e8e828f0161126d565b9450506101008c013567ffffffffffffffff81111561145c57600080fd5b6114688e828f0161126d565b9350506101208c013567ffffffffffffffff81111561148657600080fd5b6114928e828f0161126d565b9250506101408c013567ffffffffffffffff8111156114b057600080fd5b6114bc8e828f0161126d565b9150509295989b509295989b9093969950565b6000602082840312156114e157600080fd5b60006114ef848285016112c3565b91505092915050565b600061150382611800565b80845261151781602086016020860161182e565b61152081611861565b602085010191505092915050565b600061016083016000830151848203600086015261154c82826114f8565b9150506020830151848203602086015261156682826114f8565b9150506040830151848203604086015261158082826114f8565b9150506060830151848203606086015261159a82826114f8565b915050608083015184820360808601526115b482826114f8565b91505060a083015184820360a08601526115ce82826114f8565b91505060c083015184820360c08601526115e882826114f8565b91505060e083015184820360e086015261160282826114f8565b91505061010083015184820361010086015261161e82826114f8565b91505061012083015184820361012086015261163a82826114f8565b91505061014083015184820361014086015261165682826114f8565b9150508091505092915050565b61166c8161180b565b82525050565b600061016082019050818103600083015261168d818e6114f8565b905081810360208301526116a1818d6114f8565b905081810360408301526116b5818c6114f8565b905081810360608301526116c9818b6114f8565b905081810360808301526116dd818a6114f8565b905081810360a08301526116f181896114f8565b905081810360c083015261170581886114f8565b905081810360e083015261171981876114f8565b905081810361010083015261172e81866114f8565b905081810361012083015261174381856114f8565b905081810361014083015261175881846114f8565b90509c9b505050505050505050505050565b60006020820190508181036000830152611784818461152e565b905092915050565b60006020820190506117a16000830184611663565b92915050565b6000604051905081810181811067ffffffffffffffff821117156117ca57600080fd5b8060405250919050565b600067ffffffffffffffff8211156117eb57600080fd5b601f19601f8301169050602081019050919050565b600081519050919050565b6000819050919050565b6000819050919050565b82818337600083830152505050565b60005b8381101561184c578082015181840152602081019050611831565b8381111561185b576000848401525b50505050565b6000601f19601f830116905091905056fea265627a7a72305820f1b14574c2b75e3d2e199fd8cbfc794dc3c6291b26c7d9f671938aa6065513fd6c6578706572696d656e74616cf50037",
  "source": "pragma solidity >=0.4.22 <0.6.0;\r\npragma experimental ABIEncoderV2;\r\ncontract UICBuilding {\r\n    \r\n    address  owner;\r\n    mapping(uint => Building) public building;\r\n    uint public totalBuildings;\r\n    \r\n    modifier onlyOwner {\r\n        require (msg.sender == owner);\r\n        _;\r\n    }\r\n    struct Building{\r\n        string buildingIndex;\r\n        string buildingId;\r\n        string buildingName;\r\n        string buildingCode;\r\n        string buildingAddress;\r\n        string buildingBuiltDate;\r\n        string buildingNASF;\r\n        string buildingNUSF;\r\n        string buldingGSF;\r\n        string buildingCategory;\r\n        string BuildingRegion;\r\n    }\r\n    \r\n    constructor ()  public {\r\n        owner = msg.sender;\r\n    }\r\n    function addBuilding(string memory _buildingIndex, \r\n                         string memory _buildingId, \r\n                         string memory _buildingName, \r\n                         string memory _buildingCode,\r\n                         string memory _buildingAddress,\r\n                         string memory _buildingBuiltDate,\r\n                         string memory _buildingNASF,\r\n                         string memory _buildingNUSF,\r\n                         string memory _buldingGSF,\r\n                         string memory _buildingCategory,\r\n                         string memory _BuildingRegion ) public onlyOwner{\r\n        totalBuildings++;\r\n        building[totalBuildings] = Building(_buildingIndex, _buildingId, _buildingName, _buildingCode, _buildingAddress, _buildingBuiltDate, _buildingNASF, _buildingNUSF, _buldingGSF, _buildingCategory, _BuildingRegion);\r\n    }\r\n    function getBuilindingAddress(uint index) view public returns (Building memory){\r\n        return building[index];\r\n    }\r\n}\r\n",
  "sourcePath": "C:/Users/deexi/freshBlock/contracts/UICBuilding.sol",
  "compiler": {
    "name": "solc",
    "version": "0.5.0+commit.1d4f565a.Emscripten.clang"
  },
  "schemaVersion": "3.0.8",
  "updatedAt": "2019-04-27T23:39:22.156Z",
  "devdoc": {
    "methods": {}
  },
  "userdoc": {
    "methods": {}
  }
}